:100B0900FF3FFF06FF5BFF4FFF66FF6DFF7DFF079E
:100B1900FF7FFF6FFFBFFF86FFDBFFCFFFE6FFED24
:080B2900FFFDFF87FFFFFFEF56
:100A89000253000002080000023B00001043001C52
:100A9900001800140010000C0008000400000338BE
:0C0AA90000001A0355000032023000006B
:020B940000223D
:040B31007F017E00C2
:100B3500EF1FAA0670011E4A600FE4FDEDC394F68F
:090B45007480948050EA0D80F3E5
:010B4E002284
:100B6B0078627C007D007BFF7A0B79097E007F1415
:090B7B001200DE7B007A007962B1
:010B8400224E
:0F0B8500AB38AA39A93A900004EE8FF002024172
:10083C00AB38AA39A93A12013AFBAAF07C007D0A1E
:10084C00FFAE021201048E0A8F0B7C007D0AAF03EF
:10085C00AE021201048C0C8D0DAB38AA399000023B
:10086C00120165FBAAF07C007D0AFFAE02120104A6
:10087C008E108F117C007D0AAF03AE021201048C26
:10088C00128D13AB38AA39900004120165FBAAF043
:10089C007C007D0AFFAE021201048E168F177C00BD
:0E08AC007D0AAF03AE021201048C188D1922D2
:0A0AB60025E0240AF8E6FE08E6FF3A
:040AC0008E608F6154
:100AC400E4FFFE120B6BE56125E0FFE56033FEE910
:0B0AD4002FF9EA3EFA12013AFFAEF0E3
:010ADF0022F4
:100A4300E4F55AF55BE55B120AB6AD5BED25E024F0
:100A530020F8A60608A607E55B6402455A6008E588
:100A63005B6405455A700BED25E02420F876FF08FA
:100A73007640055BE55B7002055AC39408E55A644A
:050A830080948040C0DA
:010A8800224B
:0809AF00AD3CAC3BAF3CAE3B9C
:1009B7007580FFEE703BEFB4080050359009CAF818
:1009C7002828730209E40209E40209E40209E4029F
:1009D70009E40209E40209E40209E48000EF25E0E2
:1009E7002443F808E6F5A0ED25E02420F808E6F50D
:0409F70080020B94DB
:1009FB00E4F51EF51FF51CF51DF51AF51BAB38AA12
:100A0B0039A93A900004F5F0120241900002E4F586
:100A1B00F0120241E4F5F0120222AB55AA56A95787
:100A2B00900004E4F5F0120241900002E4F5F0129C
:080A3B000241E4F5F002022281
:1008BA00AB55AA56A95712013AFBAAF07C007D0A49
:1008CA00FFAE021201048E0A8F0B7C007D0AAF0371
:1008DA00AE021201048C0C8D0DAB55AA5690000283
:1008EA00120165FBAAF07C007D0AFFAE0212010428
:1008FA008E108F117C007D0AAF03AE021201048CA8
:10090A00128D13AB55AA56900004120165FBAAF08A
:10091A007C007D0AFFAE021201048E168F177C003E
:0E092A007D0AAF03AE021201048C188D192253
:060003007BFF7A0B791D62
:0100090022D4
:100B4F00E4FDFC120003EF25E0FFEE33FEE92FF981
:0B0B5F00EA3EFA12013AACF0AE04FFCF
:010B6A002268
:070938001208BAAF5BAE5AD2
:04093F008E5C8F5DDE
:10094300E4F55EF55FE55F120AB6AD5FED25E024E1
:1009530020F8A60608A607E55F6402455E6008E581
:100963005F6405455E700DED25E02420F876FF08F1
:1009730076408024E55FB55D1FE55EB55C1AED2525
:10098300E0240AF8E6FE08E6FF120B4FE55F25E0D8
:100993002420F8A60608A607055FE55F7002055E3A
:0B09A300C39408E55E64809480409AD5
:0109AE002226
:10062500EF64074E706EAB55AA56A9579000047536
:10063500F0011201D5900004120165643C45F0609B
:100645000302071EAB55AA56A95790000275F00183
:100655001201D5900004E4F5F01202419000021257
:100665000165643C45F0600302071EAB55AA56A917
:100675005775F00112019DAB55AA56A95790000276
:10068500E4F5F012024112013A641845F0600302E4
:10069500071E8045EF64044E7059AB55AA56A957FD
:1006A50090000275F0011201D590000212016564F7
:1006B5003C45F07064AB55AA56A95775F001120177
:1006C5009DAB55AA56A957900002E4F5F0120241D8
:1006D50012013A641845F07040AB55AA56A95790D7
:1006E5000004F5F0120241900002E4F5F012024117
:1006F500E48021EF64014E7020AB55AA56A95775C9
:10070500F00112019DAB55AA56A95712013A64187A
:0A07150045F07005F5F012022222F3
:10071F00EF64074E7029AB55AA56A9579000047481
:10072F00FFF5F01201D5900004120165F47003E596
:10073F00F0F4706CAB55AA56A957900004802FEFB8
:10074F0064044E702FAB55AA56A95790000274FF40
:10075F00F5F01201D5900002120165FDACF0BCFF5F
:10076F003FBDFF3CAB55AA56A957900002E475F068
:10077F003B020241EF64014E7026AB55AA56A957B2
:10078F0074FFF5F012019DAB55AA56A95712013A05
:10079F00FFAEF0BEFF0ABFFF07E475F0171202228B
:0107AF002227
:1004F200755A00755B07AB38AA39A93A12013AFF5F
:10050200AB55AA56A957E5F08FF0120222AB38AAD2
:1005120039A93A900002120165FFAB55AA56A957B4
:10052200900002E5F08FF0120241AB38AA39A93AE5
:10053200900004120165FFAB55AA56A9579000041A
:10054200E5F08FF0120241120938E4F53BF53C1256
:1005520009AF053CE53C7002053BC39408E53B64EA
:1005620080948040EA209311120B312093FD120BEC
:100572003120930302062480F820B12A120B312085
:10058200B1FD120B3130B1FD74FD255BF55B74FFDB
:10059200355AF55AE55B64FE7003E55AF4705EF570
:1005A2005A755B07805720B026120B3120B0FD121E
:1005B2000B3130B0FD7403255BF55BE4355AF55A17
:1005C200E55B640A455A7035F55A755B01802E2049
:1005D200B215120B3120B2FD120B3130B2FDAF5BFE
:1005E200AE5A120625801620B313120B3120B3FD2A
:1005F200120B3130B3FDAF5BAE5A12071FE4F53B6D
:10060200F53CC3E53C9408E53B64809480400302DA
:1006120005671209381209AF053CE53C70E4053B59
:0206220080E076
:0106240022B3
:03000B00020AE006
:100AE000C0E0758C3C758AB0C28D0531E53170026D
:100AF000053064144530700E0554E55470020553FA
:090B0000753000753100D0E032BF
:1002DF00E4F558F559C297758901758C3C758AB04C
:1002EF00D2A9D2AFD28C1209FBD28C753DFF753ECD
:1002FF0008753F3C7540FF75410A75424330B30C9A
:10030F0030B20930B00630B1030203EAC28C758CEB
:10031F003C758AB0C28D1204F2E4F580F5A0AB559E
:10032F00AA56A957900004120165FFAB38AA39A944
:10033F003A900004E5F08FF0120241AB55AA56A98E
:10034F0057900002120165FFAB38AA39A93A900005
:10035F0002E5F08FF0120241AB55AA56A9571201D0
:10036F003AFFAB38AA39A93AE5F08FF0120222AB67
:10037F0038AA39A93A900002120165FFAB55AA5667
:10038F00A957900002E5F08FF0120241AB38AA395D
:10039F00A93A12013AFFAB55AA56A957E5F08FF0CB
:1003AF00120222AB38AA39A93A900004120165FF54
:1003BF00AB55AA56A957900004E5F08FF0120241F1
:1003CF00900004120165F55485F0537FC87E00122A
:1003DF000B357558007559010202F8209211120B56
:1003EF00312092FD120B313092FDB28C02030CE5DD
:1003FF0054643C45537058AB38AA39A93A9000025F
:10040F0075F0011201D5900002120165643C45F0B0
:10041F007038AB38AA39A93A75F00112019DAB3883
:10042F00AA39A93A12013A641845F0700E900002E9
:10043F00F5F0120241E4F5F0120222AB38AA39A905
:10044F003A900002E4F5F0120241E4F553F554E45A
:10045F00F53BF53CC3E53C9408E53B648094804054
:10046F000302030CAF54AE53120B85AA3EA93F12E1
:10047F00026EAA41A94212026E1209AFAB38AA3915
:10048F00A93A90000212016545F0703BE5596401ED
:10049F0045587033900004120165FFAEF0C3EE644F
:1004AF008094804033D3EF943CEE64809480502846
:1004BF00C3EE648094804020D3EF9403EE64809465
:1004CF00805015D2A5801190000412016564044577
:1004DF00F07005F558755901053CE53C7002053B78
:0304EF00020463A1
:030000000207B044
:0C07B000787FE4F6D8FD7581750207F72C
:10000E00E709F608DFFA8046E709F208DFFA803ED4
:10001E0088828C83E709F0A3DFFA8032E309F608C1
:10002E00DFFA8078E309F208DFFA807088828C8329
:10003E00E309F0A3DFFA806489828A83E0A3F608DD
:10004E00DFFA805889828A83E0A3F208DFFA804CB7
:10005E0080D280FA80C680D4806980F2803380108E
:10006E0080A680EA809A80A880DA80E280CA8033F7
:10007E0089828A83ECFAE493A3C8C582C8CCC5836F
:10008E00CCF0A3C8C582C8CCC583CCDFE9DEE7803F
:10009E000D89828A83E493A3F608DFF9ECFAA9F0BE
:1000AE00EDFB2289828A83ECFAE0A3C8C582C8CC14
:1000BE00C583CCF0A3C8C582C8CCC583CCDFEADE2D
:1000CE00E880DB89828A83E493A3F208DFF980CC8F
:1000DE0088F0EF60010E4E60C388F0ED2402B40488
:1000EE000050B9F582EB2402B4040050AF2323452F
:0600FE00822390005E73F6
:10010400C2D5EC30E709B2D5E4C39DFDE49CFCEE16
:1001140030E715B2D5E4C39FFFE49EFE120274C318
:10012400E49DFDE49CFC800312027430D507C3E413
:060134009FFFE49EFE2285
:10013A00BB010A89828A83E0F5F0A3E02250068790
:10014A00F009E71922BBFE07E3F5F009E319228952
:0B015A00828A83E493F5F07401932285
:10016500BB0110E58229F582E5833AF583E0F5F0D8
:10017500A3E0225009E92582F886F008E622BBFEB5
:100185000AE92582F8E2F5F008E222E5832AF583FB
:08019500E993F5F0A3E99322C0
:10019D00BB010789828A830202C9500B09C5F0276A
:1001AD00F7C5F01937F722BBFE0D09F8E325F0F37B
:1001BD00C5F019E338F322F889828A8374019325F7
:0801CD00F0C5F0F8E4933822BC
:1001D500BB010DC58229C582C5833AC5830202C903
:1001E5005011C58229F808E5F026F618F5F0E582E4
:1001F50036F622BBFE11C58229F808E225F0F5F096
:10020500F218E23582F222F8E58229F582E5832AA1
:0D021500F58374019325F0F5F0E493382291
:10022200BB010A89828A83F0E5F0A3F0225006F727
:0F02320009A7F01922BBFE06F3E5F009F3192224
:10024100F8BB0111E58229F582E5833AF583E8F0EF
:10025100E5F0A3F0225009E92582C8F608A6F022AC
:0D026100BBFE09E92582C8F2E5F008F22293
:06026E008A838982E4731B
:1007BC000202DFE493A3F8E493A34003F68001F272
:1007CC0008DFF48029E493A3F85407240CC8C3333E
:1007DC00C4540F4420C8834004F456800146F6DF0D
:1007EC00E4800B0102040810204080900A89E47E0A
:1007FC00019360BCA3FF543F30E509541FFEE49302
:10080C00A360010ECF54C025E060A840B8E493A3C8
:10081C00FAE493A3F8E493A3C8C582C8CAC583CAF3
:10082C00F0A3C8C582C8CAC583CADFE9DEE780BEAB
:010AB5000040
:10027400BC000BBE0029EF8DF084FFADF022E4CC6E
:10028400F875F008EF2FFFEE33FEEC33FCEE9DEC37
:10029400984005FCEE9DFE0FD5F0E9E4CEFD22ED7D
:1002A400F8F5F0EE8420D21CFEADF075F008EF2FC7
:1002B400FFED33FD4007985006D5F0F222C398FDB8
:0502C4000FD5F0EA2255
:1002C900C5F0F8A3E028F0C5F0F8E58215827002C0
:0602D9001583E038F0225D
:00000001FF
