:100ABB00FF3FFF06FF5BFF4FFF66FF6DFF7DFF07ED
:100ACB00FF7FFF6FFFBFFF86FFDBFFCFFFE6FFED73
:080ADB00FFFDFF87FFFFFFEFA5
:100A920002510000023900001041001C001800142D
:100AA2000010000C000800040000033600001803C8
:080AB20053000030022E000089
:020B6100002270
:040B1E007F017E00D5
:100B2200EF1FAA0670011E4A600BE4FDEDC394F6A6
:050B320050EE0D80F7FC
:010B3700229B
:100B380078607C007D007BFF7A0A79BB7E007F1499
:090B48001200DE7B007A007960E6
:010B51002281
:0F0B5200AB36AA37A938900004EE8FF0020241AB
:10083E00AB36AA37A93812013AFBAAF07C007D0A22
:10084E00FFAE021201048E088F097C007D0AAF03F1
:10085E00AE021201048C0A8D0BAB36AA3790000241
:10086E00120165FBAAF07C007D0AFFAE02120104A4
:10087E008E0E8F0F7C007D0AAF03AE021201048C28
:10088E00108D11AB36AA37900004120165FBAAF049
:10089E007C007D0AFFAE021201048E148F157C00BF
:0E08AE007D0AAF03AE021201048C168D1722D4
:0A0A3F0025E02408F8E6FE08E6FFB3
:040A49008E5E8F5FCF
:100A4D00E4FFFE120B38E55F25E0FFE55E33FEE9BE
:0B0A5D002FF9EA3EFA12013AFFAEF05A
:010A6800226B
:1009F900E4F558F559E559120A3FAD59ED25E024BA
:100A09001EF8A60608A607E559640245586008E5D8
:100A19005964054558700BED25E0241EF876FF084A
:100A290076400559E55970020558C39408E558649C
:050A390080948040C024
:010A3E002295
:080AE300AD3AAC39AF3AAE396F
:100AEB00EF25E02441F808E6F5A0ED25E0241EF8FB
:070AFB0008E6F580020B6123
:1009B100E4F51CF51DF51AF51BF518F519AB36AA6A
:1009C10037A938900004F5F0120241900002E4F5D5
:1009D100F0120241E4F5F0120222AB53AA54A955D8
:1009E100900004E4F5F0120241900002E4F5F012E7
:0809F1000241E4F5F0020222CC
:1008BC00AB53AA54A95512013AFBAAF07C007D0A4D
:1008CC00FFAE021201048E088F097C007D0AAF0373
:1008DC00AE021201048C0A8D0BAB53AA5490000289
:1008EC00120165FBAAF07C007D0AFFAE0212010426
:1008FC008E0E8F0F7C007D0AAF03AE021201048CAA
:10090C00108D11AB53AA54900004120165FBAAF090
:10091C007C007D0AFFAE021201048E148F157C0040
:0E092C007D0AAF03AE021201048C168D172255
:060003007BFF7A0A79CFB1
:0100090022D4
:100B0200E4FDFC120003EF25E0FFEE33FEE92FF9CE
:0B0B1200EA3EFA12013AACF0AE04FF1C
:010B1D0022B5
:07093A001208BCAF59AE58D2
:040941008E5A8F5BE0
:10094500E4F55CF55DE55D120A3FAD5DED25E0245E
:100955001EF8A60608A607E55D6402455C6008E585
:100965005D6405455C700DED25E0241EF876FF08F5
:1009750076408024E55DB55B1FE55CB55A1AED252B
:10098500E02408F8E6FE08E6FF120B02E55D25E027
:10099500241EF8A60608A607055DE55D7002055C40
:0B09A500C39408E55C64809480409AD5
:0109B0002224
:10062700EF64074E706EAB53AA54A955900004753A
:10063700F0011201D5900004120165643C45F06099
:1006470003020720AB53AA54A95590000275F00185
:100657001201D5900004E4F5F01202419000021255
:100667000165643C45F06003020720AB53AA54A917
:100677005575F00112019DAB53AA54A9559000027C
:10068700E4F5F012024112013A641845F0600302E2
:1006970007208045EF64044E7059AB53AA54A955FF
:1006A70090000275F0011201D590000212016564F5
:1006B7003C45F07064AB53AA54A95575F00112017B
:1006C7009DAB53AA54A955900002E4F5F0120241DC
:1006D70012013A641845F07040AB53AA54A95590DB
:1006E7000004F5F0120241900002E4F5F012024115
:1006F700E48021EF64014E7020AB53AA54A95575CD
:10070700F00112019DAB53AA54A95512013A64187E
:0A07170045F07005F5F012022222F1
:10072100EF64074E7029AB53AA54A9559000047485
:10073100FFF5F01201D5900004120165F47003E594
:10074100F0F4706CAB53AA54A955900004802FEFBC
:1007510064044E702FAB53AA54A95590000274FF44
:10076100F5F01201D5900002120165FDACF0BCFF5D
:100771003FBDFF3CAB53AA54A955900002E475F06C
:100781003B020241EF64014E7026AB53AA54A955B6
:1007910074FFF5F012019DAB53AA54A95512013A09
:1007A100FFAEF0BEFF0ABFFF07E475F01712022289
:0107B1002225
:1004F400755800755907AB36AA37A93812013AFF67
:10050400AB53AA54A955E5F08FF0120222AB36AAD8
:1005140037A938900002120165FFAB53AA54A955BC
:10052400900002E5F08FF0120241AB36AA37A938E9
:10053400900004120165FFAB53AA54A9559000041E
:10054400E5F08FF012024112093AE4F539F53A1256
:100554000AE3053AE53A70020539C39408E53964BB
:1005640080948040EA209311120B1E2093FD120BFD
:100574001E20930302062680F820B12A120B1E20A7
:10058400B1FD120B1E30B1FD74FD2559F55974FFF0
:100594003558F558E55964FE7003E558F4705EF576
:1005A40058755907805720B026120B1E20B0FD1233
:1005B4000B1E30B0FD74032559F559E43558F55830
:1005C400E559640A45587035F558755901802E204F
:1005D400B215120B1E20B2FD120B1E30B2FDAF5924
:1005E400AE58120627801620B313120B1E20B3FD3B
:1005F400120B1E30B3FDAF59AE58120721E4F53982
:10060400F53AC3E53A9408E53964809480400302DE
:10061400056912093A120AE3053AE53A70E4053924
:0206240080E074
:0106260022B1
:03000B00020A697D
:100A6900C0E0758C3C758AB0C28D052FE52F7002E8
:100A7900052E6414452E700E0552E552700205517B
:090A8900752E00752F00D0E0323B
:1002DF00E4F556F557C2A5C297758901758C3C7523
:1002EF008AB0D2A9D2AFD28C1209B1D28C753BFF92
:1002FF00753C08753D3E753EFF753F097540F930F9
:10030F00B30C30B20930B00630B1030203ECC28C2B
:10031F00758C3C758AB0C28D1204F4E4F580F5A09B
:10032F00AB53AA54A955900004120165FFAB36AA2E
:10033F0037A938900004E5F08FF0120241AB53AAB1
:10034F0054A955900002120165FFAB36AA37A938A0
:10035F00900002E5F08FF0120241AB53AA54A95559
:10036F0012013AFFAB36AA37A938E5F08FF0120227
:10037F0022AB36AA37A938900002120165FFAB53A2
:10038F00AA54A955900002E5F08FF0120241AB3646
:10039F00AA37A93812013AFFAB53AA54A955E5F071
:1003AF008FF0120222AB36AA37A93890000412013F
:1003BF0065FFAB53AA54A955900004E5F08FF012D6
:1003CF000241900004120165F55285F0517FC87EFD
:1003DF0000120B227556007557010202FA20921176
:1003EF00120B1E2092FD120B1E3092FDB28C0203D7
:1003FF000EE552643C45517058AB36AA37A9389078
:10040F00000275F0011201D5900002120165643CE3
:10041F0045F07038AB36AA37A93875F00112019D37
:10042F00AB36AA37A93812013A641845F0700E900E
:10043F000002F5F0120241E4F5F0120222AB36AAE7
:10044F0037A938900002E4F5F0120241E4F551F5B6
:10045F0052E4F539F53AC3E53A9408E539648094E6
:10046F0080400302030EAF52AE51120B52AA3CA9A9
:10047F003D12026EAA3FA94012026E120AE3AB367A
:10048F00AA37A93890000212016545F0703BE55775
:10049F00640145567033900004120165FFAEF0C33E
:1004AF00EE648094804033D3EF943CEE648094806C
:1004BF005028C3EE648094804020D3EF9403EE6401
:1004CF008094805015D2A5801190000412016564AC
:1004DF000445F07005F556755701053AE53A700277
:0504EF0005390204655F
:030000000207B242
:0C07B200787FE4F6D8FD7581730207F92A
:10000E00E709F608DFFA8046E709F208DFFA803ED4
:10001E0088828C83E709F0A3DFFA8032E309F608C1
:10002E00DFFA8078E309F208DFFA807088828C8329
:10003E00E309F0A3DFFA806489828A83E0A3F608DD
:10004E00DFFA805889828A83E0A3F208DFFA804CB7
:10005E0080D280FA80C680D4806980F2803380108E
:10006E0080A680EA809A80A880DA80E280CA8033F7
:10007E0089828A83ECFAE493A3C8C582C8CCC5836F
:10008E00CCF0A3C8C582C8CCC583CCDFE9DEE7803F
:10009E000D89828A83E493A3F608DFF9ECFAA9F0BE
:1000AE00EDFB2289828A83ECFAE0A3C8C582C8CC14
:1000BE00C583CCF0A3C8C582C8CCC583CCDFEADE2D
:1000CE00E880DB89828A83E493A3F208DFF980CC8F
:1000DE0088F0EF60010E4E60C388F0ED2402B40488
:1000EE000050B9F582EB2402B4040050AF2323452F
:0600FE00822390005E73F6
:10010400C2D5EC30E709B2D5E4C39DFDE49CFCEE16
:1001140030E715B2D5E4C39FFFE49EFE120274C318
:10012400E49DFDE49CFC800312027430D507C3E413
:060134009FFFE49EFE2285
:10013A00BB010A89828A83E0F5F0A3E02250068790
:10014A00F009E71922BBFE07E3F5F009E319228952
:0B015A00828A83E493F5F07401932285
:10016500BB0110E58229F582E5833AF583E0F5F0D8
:10017500A3E0225009E92582F886F008E622BBFEB5
:100185000AE92582F8E2F5F008E222E5832AF583FB
:08019500E993F5F0A3E99322C0
:10019D00BB010789828A830202C9500B09C5F0276A
:1001AD00F7C5F01937F722BBFE0D09F8E325F0F37B
:1001BD00C5F019E338F322F889828A8374019325F7
:0801CD00F0C5F0F8E4933822BC
:1001D500BB010DC58229C582C5833AC5830202C903
:1001E5005011C58229F808E5F026F618F5F0E582E4
:1001F50036F622BBFE11C58229F808E225F0F5F096
:10020500F218E23582F222F8E58229F582E5832AA1
:0D021500F58374019325F0F5F0E493382291
:10022200BB010A89828A83F0E5F0A3F0225006F727
:0F02320009A7F01922BBFE06F3E5F009F3192224
:10024100F8BB0111E58229F582E5833AF583E8F0EF
:10025100E5F0A3F0225009E92582C8F608A6F022AC
:0D026100BBFE09E92582C8F2E5F008F22293
:06026E008A838982E4731B
:1007BE000202DFE493A3F8E493A34003F68001F270
:1007CE0008DFF48029E493A3F85407240CC8C3333C
:1007DE00C4540F4420C8834004F456800146F6DF0B
:1007EE00E4800B0102040810204080900A92E47EFF
:1007FE00019360BCA3FF543F30E509541FFEE49300
:10080E00A360010ECF54C025E060A840B8E493A3C6
:10081E00FAE493A3F8E493A3C8C582C8CAC583CAF1
:10082E00F0A3C8C582C8CAC583CADFE9DEE780BEA9
:010ABA00003B
:10027400BC000BBE0029EF8DF084FFADF022E4CC6E
:10028400F875F008EF2FFFEE33FEEC33FCEE9DEC37
:10029400984005FCEE9DFE0FD5F0E9E4CEFD22ED7D
:1002A400F8F5F0EE8420D21CFEADF075F008EF2FC7
:1002B400FFED33FD4007985006D5F0F222C398FDB8
:0502C4000FD5F0EA2255
:1002C900C5F0F8A3E028F0C5F0F8E58215827002C0
:0602D9001583E038F0225D
:00000001FF
